:02000002B0004C
:1040000000400B00DE7A0B00000006000C000502E9
:084010000401B41400000000DB
:044018008C700B009D
:1040200081F0004102E000BF83F0004330B54FEA69
:1040300041044FEA430594EA050F08BF90EA020FD6
:104040001FBF54EA000C55EA020C7FEA645C7FEA69
:10405000655C00F0E2804FEA5454D4EB5555B8BF8C
:104060006D420CDD2C4480EA020281EA030382EAFD
:10407000000083EA010180EA020281EA0303362D8F
:1040800088BF30BD11F0004F4FEA01314FF4801C62
:104090004CEA113102D0404261EB410113F0004F74
:1040A0004FEA03334CEA133302D0524263EB43032B
:1040B00094EA050F00F0A780A4F10104D5F1200EC9
:1040C0000DDB02FA0EFC22FA05F2801841F1000124
:1040D00003FA0EF2801843FA05F359410EE0A5F1F8
:1040E00020050EF1200E012A03FA0EFC28BF4CF029
:1040F000020C43FA05F3C01851EBE37101F00045DF
:1041000007D54FF0000EDCF1000C7EEB00006EEBEB
:104110000101B1F5801F1BD3B1F5001F0CD3490875
:104120005FEA30004FEA3C0C04F101044FEA4452CC
:1041300012F5800F80F09A80BCF1004F08BF5FEA53
:10414000500C50F1000041EB045141EA050130BD33
:104150005FEA4C0C404141EB0101013C28BFB1F545
:10416000801FE9D291F0000F04BF01460020B1FA90
:1041700081F308BF2033A3F10B03B3F120020CDA63
:104180000C3208DD02F1140CC2F10C0201FA0CF041
:1041900021FA02F10CE002F11402D8BFC2F1200CA6
:1041A00001FA02F120FA0CFCDCBF41EA0C0190405C
:1041B000E41AA2BF01EB0451294330BD6FEA0404A5
:1041C0001F3C1CDA0C340EDC04F11404C4F1200290
:1041D00020FA04F001FA02F340EA030021FA04F3A2
:1041E00045EA030130BDC4F10C04C4F1200220FAF9
:1041F00002F001FA04F340EA0300294630BD21FA37
:1042000004F0294630BD94F0000F83F4801306BFFC
:1042100081F480110134013D4EE77FEA645C18BFF0
:104220007FEA655C29D094EA050F08BF90EA020F87
:1042300005D054EA000C04BF1946104630BD91EA7F
:10424000030F1EBF0021002030BD5FEA545C05D182
:104250004000494128BF41F0004130BD14F58004C1
:104260003CBF01F5801130BD01F0004545F0FE4135
:1042700041F470014FF0000030BD7FEA645C1ABF6A
:10428000194610467FEA655C1CBF0B46024650EAA1
:10429000013406BF52EA033591EA030F41F40021CD
:1042A00030BD00BF90F0000F04BF0021704730B553
:1042B0004FF4806404F132044FF000054FF0000128
:1042C00050E700BF90F0000F04BF0021704730B5E9
:1042D0004FF4806404F1320410F0004548BF4042BE
:1042E0004FF000013EE700BF42004FEAE2014FEA13
:1042F00031014FEA02701FBF12F07F4393F07F4FEE
:1043000081F06051704732F07F4208BF704793F0F0
:104310007F4F04BF41F40021704730B54FF4607403
:1043200001F0004521F000411CE700BF50EA010206
:1043300008BF704730B54FF000050AE050EA0102AF
:1043400008BF704730B511F0004502D5404261EB1F
:1043500041014FF4806404F132045FEA915C3FF460
:10436000D8AE4FF003025FEADC0C18BF03325FEAFD
:10437000DC0C18BF033202EBDC02C2F1200300FAAE
:1043800003FC20FA02F001FA03FE40EA0E0021FAD3
:1043900002F11444BDE600BF70B54FF0FF0C4CF4C1
:1043A000E06C1CEA11541DBF1CEA135594EA0C0F73
:1043B00095EA0C0F00F0DEF82C4481EA030621EAAE
:1043C0004C5123EA4C5350EA013518BF52EA0335E9
:1043D00041F4801143F4801338D0A0FB02CE4FF09B
:1043E0000005E1FB02E506F00042E0FB03E54FF0CB
:1043F0000006E1FB03569CF0000F18BF4EF0010EC3
:10440000A4F1FF04B6F5007F64F5407404D25FEABE
:104410004E0E6D4146EB060642EAC62141EA555171
:104420004FEAC52040EA5E504FEACE2EB4F1FD0CB3
:1044300088BFBCF5E06F1ED8BEF1004F08BF5FEA31
:10444000500E50F1000041EB045170BD06F00046E3
:1044500046EA010140EA020081EA0301B4EB5C0490
:10446000C2BFD4EB0C0541EA045170BD41F4801188
:104470004FF0000E013C00F3AB8014F1360FDEBFAD
:10448000002001F0004170BDC4F10004203C35DA89
:104490000C341BDC04F11404C4F1200500FA05F30C
:1044A00020FA04F001FA05F240EA020001F00042AD
:1044B00021F0004110EBD37021FA04F642EB060123
:1044C0005EEA430E08BF20EAD37070BDC4F10C044D
:1044D000C4F1200500FA04F320FA05F001FA04F211
:1044E00040EA020001F0004110EBD37041F10001FD
:1044F0005EEA430E08BF20EAD37070BDC4F1200508
:1045000000FA05F24EEA020E20FA04F301FA05F26F
:1045100043EA020321FA04F001F0004121FA04F217
:1045200020EA020000EBD3705EEA430E08BF20EAE7
:10453000D37070BD94F0000F0FD101F00046400021
:1045400041EB010111F4801F08BF013CF7D041EAA3
:10455000060195F0000F18BF704703F000465200A7
:1045600043EB030313F4801F08BF013DF7D043EA78
:104570000603704794EA0C0F0CEA135518BF95EA2E
:104580000C0F0CD050EA410618BF52EA4306D1D1B5
:1045900081EA030101F000414FF0000070BD50EAD4
:1045A000410606BF1046194652EA430619D094EA5E
:1045B0000C0F02D150EA013613D195EA0C0F05D148
:1045C00052EA03361CBF104619460AD181EA03019C
:1045D00001F0004141F0FE4141F470014FF0000054
:1045E00070BD41F0FE4141F4780170BD70B54FF0EF
:1045F000FF0C4CF4E06C1CEA11541DBF1CEA13556F
:1046000094EA0C0F95EA0C0F00F0A7F8A4EB050450
:1046100081EA030E52EA03354FEA013100F0888047
:104620004FEA03334FF0805545EA131343EA126310
:104630004FEA022245EA111545EA10654FEA0026C5
:104640000EF000419D4208BF964244F1FD0404F57E
:10465000407402D25B084FEA3202B61A65EB0305DA
:104660005B084FEA32024FF480104FF4002CB6EB97
:10467000020E75EB030E22BFB61A754640EA0C0017
:104680005B084FEA3202B6EB020E75EB030E22BF57
:10469000B61A754640EA5C005B084FEA3202B6EB98
:1046A000020E75EB030E22BFB61A754640EA9C0057
:1046B0005B084FEA3202B6EB020E75EB030E22BF27
:1046C000B61A754640EADC0055EA060E18D04FEAE5
:1046D000051545EA16754FEA06164FEAC30343EA85
:1046E00052734FEAC2025FEA1C1CC0D111F4801F52
:1046F0000BD141EA00014FF000004FF0004CB6E74B
:1047000011F4801F04BF01430020B4F1FD0C88BFE9
:10471000BCF5E06F3FF6AFAEB5EB030C04BFB6EBF4
:10472000020C5FEA500C50F1000041EB045170BDE7
:104730000EF0004E4EEA113114EB5C04C2BFD4EB14
:104740000C0541EA045170BD41F480114FF0000E98
:10475000013C90E645EA060E8DE60CEA135594EA14
:104760000C0F08BF95EA0C0F3FF43BAF94EA0C0F17
:104770000AD150EA01347FF434AF95EA0C0F7FF48C
:1047800025AF104619462CE795EA0C0F06D152EAE0
:1047900003353FF4FDAE1046194622E750EA4106C4
:1047A00018BF52EA43067FF4C5AE50EA41047FF4D5
:1047B0000DAF52EA43057FF4EBAE12E74FEA410238
:1047C000B2F1E04324BFB3F5001CDCF1FE5C0DD96F
:1047D00001F0004C4FEAC0024CEA5070B2F1004FB9
:1047E00040EB830008BF20F00100704711F0804FBC
:1047F00021D113F13872BCBF01F00040704741F481
:1048000080114FEA5252C2F11802C2F1200C10FA84
:104810000CF320FA02F018BF40F001004FEAC12368
:104820004FEAD32303FA0CFC40EA0C0023FA02F30C
:104830004FEA4303CCE77FEA625307D150EA0133E2
:104840001EBF4FF0FE4040F44000704701F00040B2
:1048500040F0FE4040F40000704700BF10F8012B0C
:1048600011F8013B012A28BF9A42F7D0D01A7047AD
:10487000034613F8012B002AFBD1181A01387047A0
:1048800009480A49884208B505D0094A824202D03F
:10489000121A02F0B1FA0748074A0021121A02F070
:1048A000B9FA014808BD00BFACE20320447A0B000E
:1048B00018E3032018E30320F0E7032070B5074E48
:1048C000074C02F009F8A41BA4080025AC4200D153
:1048D00070BD56F8043B98470135F7E7FC790B00AB
:1048E000207A0B0000F090BB08B500F029FDBDE870
:1048F000084001F0A9BF01F0BBB801F0B9B801F060
:10490000BFB80078B0FA80F0400970470123037007
:104910007047000008B500F09FFE034B1860BDE82B
:10492000084001F035B800BF28E7032003682BB129
:104930004268934202D2184602F056BA00207047ED
:1049400038B50568044645B143689D4205D22846FE
:10495000FFF78EFF013005442560204638BDF8B5CD
:10496000044647680D4621B903687A1C4260D95550
:10497000F8BD0846FFF77CFFA368461CF2199A426F
:10498000F6D8206832462946384402F035FA606885
:1049900030446060ECE7000038B504460B46D0E9CF
:1049A00001012568044A091A284401F071F8636876
:1049B00001300344636038BDA0700B0038B5044675
:1049C0000B46D0E901012568044A091A284401F080
:1049D0005FF8636801300344636038BDA3700B0067
:1049E00008B500234377006801F094FDBDE8084056
:1049F00000F036BD2DE9F04301EB02098FB04945C7
:104A0000CDE9051980460D46164680F0928005A82E
:104A10000F88FFF795FF03684B4580F08A8005A853
:104A2000FFF784FF47F276239F42C4B200F0A980CB
:104A300027D847F261239F427ED047F264239F42EA
:104A400042D046F670539F4228D1634E634FDFF841
:104A5000A081059B99456CD905A8FFF767FFC4B2F3
:104A600005A8FFF76DFF059D31462846FFF7F6FEC6
:104A70000146E0B9204601F09FFF05A8FFF760FF5F
:104A8000E7E747F264739F423FD047F276739F4255
:104A900000F0878047F261739F425FD00023CDE929
:104AA000013302220092B8F81A20194629E039464B
:104AB0002846FFF7D3FE28B141462846FFF7CEFE31
:104AC0000028DAD10121D5E70AAB4549079307A8A9
:104AD00010230025CDE90853FFF741FF07A8214621
:104AE000FFF75AFF204601F091FF014607A8FFF7A4
:104AF00065FF089BCDE90155013B0093079B2A46C2
:104B00001421404600F0CEFA13E005A8FFF718FF85
:104B1000036899450DD9A4B20121204601F04CFF4C
:104B200005A8FFF703FF011E18BF0121204601F071
:104B300054FF0FB0BDE8F0830AAB079307A810231A
:104B400028490025CDE90853FFF709FF07A82146AA
:104B5000FFF722FF204601F06CFFC6E705A8FFF72C
:104B6000EFFE03689945E4D9A4B20121204601F083
:104B700023FF05A8FFF7DAFE0146204601F070FF8B
:104B8000D7E720468DF8284000F06CFC03460AA8C1
:104B900023B1154A934201D09847CAE700F05EFC62
:104BA000C7E705A8FFF7CCFE059B8DF81C405D1BF1
:104BB000751B2046CDE90A350C9500F05DFC0346D7
:104BC0000AA907A823B1094A934201D09847B0E740
:104BD00000F045FCADE700BFA7700B00AA700B000A
:104BE000B2700B00B5700B005D540B005F540B00EE
:104BF000AE700B002DE9F0418CB004AF04460522E5
:104C00000068391D01F0CDF998B3052804D00020C3
:104C10002037BD46BDE8F081B7F8050000F0B4FDCF
:104C2000A7F80500B7F8070000F0AEFDB7F80530AB
:104C3000A7F807008046002BE9D03B7913BB00F0B2
:104C40000BFC0246E060607FB7F80730B0B9B7F8F8
:104C50000510012912D1092B0DD0C82B01D0042B2E
:104C6000D6D1012562612046657700F007FBFFF78A
:104C700051FE0120CCE703236377C9E7581F18BF13
:104C80000120C5E7B0F5806F03D92046FFF7A8FEE5
:104C9000EFE700F1080323F007036E46ADEB030DC9
:104CA00004AD02462946206801F07BF980454FF0AB
:104CB00000007DD1B7F80730E85400F0CDFB3B7918
:104CC000E060142B00F0A48048D80F2B00F0A080E7
:104CD00007D8022B48D0062B4FD02046FFF780FE86
:104CE00056E0112BF9D100233B70B7F807302B4465
:104CF0009D42C7E903534BD207F10C00D5F8008061
:104D0000FFF71EFEFB68B7F807105D1B4D1BC7E9D8
:104D100005357B68FD61C3F30F236383634B9845BF
:104D200000F0BD8000F28A80A3F57F236FF400724B
:104D30001344984500F09B8077D8A3F50033063BD9
:104D4000984500F09A8003F500330333984569D104
:104D500007F11401384600F082FB63E0292B19D0DB
:104D6000372B15D01D2BB8D1637F33B9012363775F
:104D7000204600F083FAFFF7CDFD0023C821B7F8E5
:104D800005200091CDE901331946204600F08AF94B
:104D900001200DE0A3681BB9402000F069FEA0606F
:104DA000B7F80780A8444545C7E9055802D3002055
:104DB000B5462DE729464022A06802F061F8A368B5
:104DC000002583F83F5007F11400FFF7B9FD036891
:104DD00098451BD9786920B1BB69984214D202F07A
:104DE00007F885B2206801F095FB2368A2685A6332
:104DF0001D870023637700F02FFBA0F59C50083837
:104E0000C4E903006061C3E72846EAE75025E9E703
:104E10007B68B7F80720C3F30F2363832946204636
:104E2000FFF7E8FD00236383B2E7214B9845F9D1F2
:104E300007F11401384600F012FBF3E71D4B9845CB
:104E400021D003F19F6303F5003303F58073984588
:104E50001FD003F16E4303F5302303F586739845A5
:104E6000E0D107F11401384600F0F9FADAE707F16A
:104E70001401384600F0F3FAD4E707F1140138467C
:104E800000F0EDFACEE707F11401384600F0E7FA3A
:104E9000C8E707F11401384600F0E1FAC2E707F16C
:104EA0001401384600F0DBFABCE700BF76667300F9
:104EB0006462670061636F6E2DE9F04104468CB057
:104EC0000D46FFF727FD637F022B1ED0237F628BE9
:104ED0000133DBB22377AAB9022B13D8206801F083
:104EE000E1F9A8B125B9206801F0BAFA00280FDD70
:104EF0002046FFF77FFE0028F5D1206801F00AFB6D
:104F000000F0AEFA237F013B23770CB0BDE8F081BF
:104F100000F0A2FA0546206801F0C4F9677F012F6E
:104F2000064624D120B965612046FFF759FDE9E71F
:104F3000E3684FF21862EB1A9342F5D84AF6C8724A
:104F4000934203D82369EB1A9342DBD9636941F298
:104F50007072EB1A9342D5D90023CDE90133009347
:104F60001A460621204600F09DF86561CAE7002F29
:104F7000C8D16369EB1A40B141F270729342C1D952
:104F8000206801F0C7FA6777BCE741F288329342A4
:104F9000B8D9206801F0BEFAD4F800C0DCF834E0DB
:104FA000BCF83880BEF1000F1BD033464246714634
:104FB000604601F0F9F80128D7D16368059301250F
:104FC00018462583FFF754FC0022CDE90122059BFA
:104FD00000902A461D21204600F064F82369636191
:104FE00090E7084B06930CF120070FCF07AE0FC6D2
:104FF0003B6833704246734606A9604601F0B4F937
:10500000D9E700BF10760B00F8B50121052001F0AB
:10501000D3FC0121062001F0CFFC0121072001F083
:10502000CBFC0021032001F0C7FC00210E2001F081
:10503000C3FC41F2883000F053FD174C40F6B83005
:1050400000F008FA154B636000F006FAA0F59C50DA
:105050002368134A5A630838C4E903005022606188
:105060001A87002644F24F67206801F053FA6677EA
:1050700000F0F2F90546637F012B0CD000F0ECF94B
:10508000401BB84204D800212046FFF715FFF2E785
:10509000637F012BE8D1F8BD18E30320B8700B0043
:1050A000D9700B002DE9F04F83B000AF04460068C3
:1050B0003D6B884616469946EB4601F0F3F800280A
:1050C00000F08180B8F11D0F04D84D4B23FA08F38E
:1050D000DB0702D4637F012B75D146B9668B36B9E5
:1050E000238B01339BB2002B72D02383268BA8F134
:1050F0000C03082B16D8D4E90323934238BF134678
:1051000003F1420A00F0A8F9AAEB0000002861DBD5
:1051100000212046FFF7D0FE00F09EF9AAEB000028
:105120000028F5DAB9F1000F5BD06B1D7A6B002A0D
:10513000BA6B08BF002203EB020A0AF1070323F04F
:105140000703ADEB030D30468DF80080C7F804D09F
:1051500000F022FBBB6BADF80100E81880B200F054
:105160001BFBADF80300B9F1000F3CD0002D3AD085
:105170002A4649460DF1050001F03EFE681D7B6B95
:105180003BB1BB6B2BB11A467B68796B184401F0BD
:1051900033FE002555452AD2AAEB05027B6820681C
:1051A000B2F5806F28BF4FF48062591900F02DFFCF
:1051B0000646002000F04EF9BEB9206801F0AAF9B9
:1051C000667700F04DF90C37DD46BD46BDE8F08F3F
:1051D00001238AE7217F0029A4D12046FFF76CFE36
:1051E000A0E70523A2E70520C9E73544D2E703D0AD
:1051F0002046FFF7F5FBE6E700F02EF92061E2E735
:105200004500002070B5ADF5846D08AB164600244E
:105210000546059305A84FF48063CDE90643FFF7E3
:105220009EFB314605A8FFF79AFB069B013B0093C6
:10523000CDE90144059B224640212846FFF732FF75
:105240000DF5846D70BD000010B50C4601F076FAC6
:10525000064900F058FE206801F0C6FD012804D17F
:10526000034A04490448FFF7CDFF10BDE5700B0069
:10527000F3700B0009710B0018E3032030B599B0EF
:1052800008AB044605930025402305A80B49CDE94A
:105290000653FFF764FB05A80949FFF760FB069B6F
:1052A0000293059B0193652300932A46054B112128
:1052B0002046FFF7F7FE19B030BD00BF10710B009C
:1052C00015710B0034710B002DE9F041ADF5846DC3
:1052D00008AB002405460E46059305A84FF48063ED
:1052E000154910EE108ACDE90643FFF738FB05A8F3
:1052F0003146FFF751FBDDE90661059B40468F1BF8
:105300001E44FEF7F1FF0D4ACDE900013946304653
:1053100000F0BEFB431C069803440693013B009338
:10532000CDE90144059B224614212846FFF7BAFE29
:105330000DF5846DBDE8F08123710B0026710B0023
:1053400010B529480021FFF7B7FD284800F020F9E3
:10535000032001F05BFB20B1254A26492248FFF7D4
:1053600051FF0E2001F065FBFEF7ACFF1AA3D3E955
:105370000023FFF711F81AA3D3E90023FFF736F94A
:105380001D4B0022FEF750FE1C4B0022FFF704F8D5
:10539000FFF714FA062100EE100A04461248FFF740
:1053A00093FF2046FEF7A0FF154B0022FEF7F4FF07
:1053B000144B0022FFF71AF9134B0022FEF736FEBA
:1053C000FFF7FCF9072100EE100A0748FFF77CFF02
:1053D00010BD00BFAFF300806666666666660A4071
:1053E0000000000000FEAF4018E3032074E3032038
:1053F000F3700B0009710B000000E03F0000594002
:1054000000002240000014400000404010B50E4C47
:105410000021012000F0A0FA204601F0C5F804F1B7
:105420001C0000F02BFC094A09480023C2E9004394
:10543000C2E90233C2E90433936193836363238730
:10544000BDE8104000F037B838E3032018E303202C
:1054500074E3032000F044BB00F0FEB870477047CF
:105460007047000003065ABF024B53F8200000208B
:10547000704700BF9C710B0003065ABF024B53F8E4
:1054800020000020704700BF9C730B0010B583689C
:10549000044613B1032201469847204610BD342329
:1054A00003FB0101CB6823B94869003818BF01200C
:1054B000704701207047034600F550720021D96003
:1054C00034339A42FBD14FF0FF33C0F8403370477A
:1054D00013B50B460246D0E900016C4684E8030090
:1054E00093E8030082E8030094E8030083E80300E4
:1054F0009868916890609960D168D868D060D960E8
:1055000002B010BDF0B50F2993B004460D463DD84A
:10551000D0F84033002B39D0FFF7C1FF002835D039
:10552000342632467543002105A801F073FC2F1D77
:105530000023635101A906A827440393FFF7C8FF7E
:10554000394601A86619FFF7C3FF01A8FFF79EFFC0
:105550000A9B73610B9BB3619DF8303033770D9BD1
:1055600033620E9B73620F9BB3629DF8403086F8E6
:105570002C30119B336306A8FFF788FFFFF76CFF01
:105580006051D4F84033013BC4F8403313B0F0BD50
:105590002DE9F0470546FFF75FFF002607462C463A
:1055A000B1464FF001084FF0020AC4F8309031467E
:1055B0002846FFF774FF80B12368216AFA1A8A42ED
:1055C0000BD3B2FBF1F201FB0233236094F82C30D1
:1055D0001BB1626AEAB9C4F830800136102E04F1BA
:1055E0003404E2D12C1D0026E36A5BB1237EDBB1DB
:1055F000D4E904309847E36A022B03D131462846A8
:10560000FFF780FF0136102E04F13404ECD1BDE821
:10561000F087A36A9A42E0D901339A42A3628CBF11
:10562000434653462363D8E7A3680BB901F0C0FA99
:10563000E3682046DEE7000008B5024B1B685B6CA0
:10564000019308BD4802030008B5024B1B685B6864
:10565000019308BD1802030008B5024B1B685B6983
:10566000019308BD1802030008B5024B1B685B6874
:10567000019308BD2C02030008B5024B1B689B6810
:10568000019308BD2C02030008B5024B1B68DB68C0
:10569000019308BD2C02030008B5024B1B681B696F
:1056A000019308BD2C02030008B5024B1B685B691F
:1056B000019308BD2C02030008B5024B1B689B6ACE
:1056C000019308BD2C02030008B5024B1B681B6B3D
:1056D000019308BD2C02030008B5024B1B689B6FA9
:1056E000019308BD2C02030008B5024B1B681B6A1E
:1056F000019308BD2802030008B5024B1B685B6AD2
:10570000019308BD2802030008B5024B1B689B6A81
:10571000019308BD2802030008B5024B1B68DB6A31
:10572000019308BD2802030008B5024B1B681B6BE0
:10573000019308BD2802030008B5024B1B685B6B90
:10574000019308BD2802030008B5024B1B681B6CBF
:10575000019308BD2802030008B5024B1B685B6972
:10576000019308BD6C02030008B5024B1B685B691E
:10577000019308BD6402030008B5024B1B681B6A55
:10578000019308BD6402030008B5024B1B685B6A05
:10579000019308BD6402030008B5024B1B689B6AB5
:1057A000019308BD6402030008B5024B1B689B68A7
:1057B000019308BD6802030008B5024B1B68DB6853
:1057C000019308BD6802030008B5024B1B689B6982
:1057D000019308BD3802030008B5024B1B68DB6962
:1057E000019308BD3802030008B5024B1B681B6A11
:1057F000019308BD3802030008B5024B1B689B6A81
:10580000019308BD3802030008B5024B1B681B6BEF
:10581000019308BD3802030008B5024B1B689B6B5F
:10582000019308BD3802030008B5024B1B68DB6911
:10583000019308BD3002030008B5024B1B681B6AC8
:10584000019308BD3002030008B5024B1B68DB68FA
:10585000019308BD3C02030008B5024B1B681B699D
:10586000019308BD3C02030008B5024B1B685B694D
:10587000019308BD3C02030008B5024B1B689B69FD
:10588000019308BD3C02030008B5024B1B68DB69AD
:10589000019308BD3C02030008B5024B1B681B6A5C
:1058A000019308BD3C02030008B5024B1B689B6ACC
:1058B000019308BD3C02030008B5024B1B681B6C3A
:1058C000019308BD3C02030008B5024B1B681B682E
:1058D000019308BD4C02030008B5024B1B681B690D
:1058E000019308BD4C02030008B5024B1B685B69BD
:1058F000019308BD4C02030008B5024B1B689B696D
:10590000019308BD4C02030008B5024B1B68DB691C
:10591000019308BD4C02030008B5024B1B681B6ACB
:10592000019308BD4C02030008B5024B1B681B6DB8
:10593000019308BD6002030008B5024B1B685B6859
:10594000019308BD2002030008B5024B1B685B6988
:10595000019308BD2002030008B5024B1B68DB6AF7
:10596000019308BD2002030008B5034B1B68D3F860
:105970008830019308BD00002002030008B5034BE6
:105980001B68D3F89430019308BD00002002030087
:1059900008B5024B1B689B68019308BD44020300D5
:1059A00008B5024B1B68DB6B019308BD4402030082
:1059B00008B5024B1B685B68019308BD40020300F9
:1059C00008B5024B1B689B68019308BD40020300A9
:1059D00008B5024B1B68DB68019308BD4002030059
:1059E00008B5024B1B681B69019308BD4002030008
:1059F00008B5024B1B685B69019308BD40020300B8
:105A000008B5024B1B689B69019308BD4002030067
:105A100008B5024B1B68DB69019308BD4002030017
:105A200008B5024B1B681B6A019308BD40020300C6
:105A300008B5024B1B681B6B019308BD40020300B5
:105A400008B5024B1B685B6B019308BD4002030065
:105A500008B5024B1B681B6C019308BD4002030094
:105A600008B5024B1B685B6C019308BD4002030044
:105A700008B5024B1B681B68019308BD1C0203009C
:105A800008B5024B1B685B68019308BD1C0203004C
:105A900008B5024B1B68DB69019308BD1C020300BB
:105AA00008B5024B1B68DB6A019308BD1C020300AA
:105AB00008B5024B1B68DB6B019308BD1C02030099
:105AC00008B5024B1B681B6C019308BD1C02030048
:105AD00008B5024B1B685B6C019308BD1C020300F8
:105AE0000021FFF731BF0000024800230360FFF7E9
:105AF000A3BD00BFB8E60320002240681146FFF7AF
:105B00008FBF002240681146FFF79ABF406800220D
:105B1000FFF78EBF4068002281F00101FFF778BFD8
:105B2000002340681A461946FFF76ABF0023406801
:105B30001A461946FFF75CBF002240681146FFF77E
:105B40004FBF002240681146FFF73ABF406800226D
:105B50000221FFF73DBF002340681A46FFF728BF28
:105B6000024B03225A60024A1A607047BCE60320C7
:105B7000AC750B007047F8B5064615460C468F18F5
:105B8000BC4206D0336814F8011B9B683046984726
:105B9000F6E72846F8BD007C0022FFF7A5BD007C93
:105BA0000021FFF7A9BD007C0021FFF7ADBD007CFF
:105BB0000021FFF7B1BD007C0021FFF7B5BD10B596
:105BC00014210446FEF79BFE204610BD38B504465E
:105BD00015464FF47A730022C4E90123094B21745E
:105BE000084623602946FFF7AFFDBF3008D16B6937
:105BF000DB0705D56868FFF743FFE868FFF740FF5C
:105C0000204638BDE8750B00704710B518210446D2
:105C1000FEF775FE204610BDF0B5037D062B8DB056
:105C20000E4600F104074FF0000412D000F1080501
:105C300015F8011D0A22304600F06FF9AF42044406
:105C400019D0002CF4D02E21304600F04DF9044438
:105C5000EEE72F236A4639460A208DF80040FFF709
:105C600083FD6846FEF704FE33680246DB6869463A
:105C700030469847044620460DB0F0BD10B5054BA0
:105C80000446112240F8043B002101F0C3F82046ED
:105C900010BD00BF10760B000346074A10B543F84D
:105CA000042B01F1100251F8044B43F8044B9142CC
:105CB000F9D10A781A7010BD10760B00037D042B01
:105CC00004D14068003818BF01207047062B07D167
:105CD00043683BB983682BB9C3681BB90069F1E716
:105CE000002070470120704710B59DF8084044EA35
:105CF000032343EA024242EA01610423416003753F
:105D000010BD000007B5064B0360CB7800938B787D
:105D10004A780978FFF7E8FF03B05DF804FB00BF9D
:105D200010760B00014B024A1A607047C4E603204C
:105D30001C760B00002340681A46FFF739BE406806
:105D400000220221FFF744BE002240681146FFF7FF
:105D500037BE002240681146FFF742BE002340686C
:105D60001A461946FFF744BE002340681A461946F2
:105D7000FFF746BE40680021FFF76ABE4068002179
:105D8000FFF76EBE4068002281F00101FFF740BEC0
:105D900040680022FFF74CBE002240681146FFF722
:105DA0004FBE002240681146FFF73ABE2DE9F0438E
:105DB00095B014460D460746FFF760FF00211C22F0
:105DC0000DA8009101F026F840230C9320466B4665
:105DD0000CAA0021FFF7F0FC044600284BD1024634
:105DE00001216868FFF7FCFD0221804622466868B1
:105DF000FFF7F6FD009E81462146002E3BD000298C
:105E000039D17368022B03D00A2B11D0F669F4E75D
:105E1000B8F1000FFAD0716906A8043107ADFFF799
:105E200071FF0FCD3C1D0FC42B6823704146EDE779
:105E3000B9F1000FEAD07469102201A800F0EAFF5E
:105E400006238DF8143001AD04F1080318341868E6
:105E500059682A4603C20833A3421546F7D101A95F
:105E600006A807ADFFF718FF0FCD3C1D0FC42B6828
:105E700023704946CAE70098FFF796FC384615B0EC
:105E8000BDE8F083024B034A1A6000225A60704753
:105E9000C8E6032028760B00F8B506460D468F1895
:105EA0000024BD420CD0336815F8011B9B683046B6
:105EB0009847031E01DB1C44F3E7002C08BF1C4677
:105EC0002046F8BD13B50446084659B10191FEF7C6
:105ED000CFFC23680199DB680246204602B0BDE88A
:105EE0001040184702B010BD03689B68184738B5CA
:105EF0000D210546FFF7F8FF0A2104462846FFF763
:105F0000F3FF204438BD38B50546FFF7DBFF0446F4
:105F10002846FFF7ECFF204438BD30B58BB0002396
:105F2000012A8DF8243098BF0A2209AC0D46B1FB36
:105F3000F2F101FB125303F0FF03092B94BF30333E
:105F40003733DBB2AA4204F8013DEFD92146FFF70F
:105F5000B9FF0BB030BD0000014B00229A607047C2
:105F6000D0E6032010B5044608462170FFF75CFC1C
:105F700000236360204610BD10B50446FFF76CFB9C
:105F8000E060236820465B699847002808DAFFF73D
:105F900063FBE368C01AA3689842F2D34FF0FF3066
:105FA00010BD2DE9F04107460C468E180D46B5424E
:105FB000A5EB040807D03846FFF7DEFF031E02DB1F
:105FC00005F8013BF3E74046BDE8F081054B0222AE
:105FD0001A60054B054A9A600020C3E90000FFF7EC
:105FE000ABBC00BFECE60320E0E603200000FFFFAF
:105FF00013B503688DF80710DC6B01224FF0FF33F7
:106000000DF10701A04702B010BD10B40368DC6BAE
:106010004FF0FF33A4465DF8044B604713B51346B9
:1060200002688DF80710D46B0DF107010122A0471B
:1060300002B010BD10B54369B3F88620B3F88430C0
:106040009A42044608D06369B3F88420511CA3F82F
:1060500084101344187910BD03681B699847002801
:10606000F1D14FF0FF30F6E7704743691868C0433D
:10607000C00F704770470000064B994210B500F101
:106080000C0405D0084600F097FD002808BF002446
:10609000204610BD9C750B0010B5AC210446FEF7E0
:1060A0002EFC204610BDAC21FEF729BC2DE9F041A5
:1060B0004FF0000886B01C46C0F8048005460E4626
:1060C00017464146102202A800F0A4FE631C09D026
:1060D0004FF47A73B4FBF3F203FB1244CDE90228C8
:1060E0005C430494686910230093006802AB41F29A
:1060F000050240F6FF71FFF767FB002807DAFFF79C
:10610000D7FC03686B60002006B0BDE8F0816869C9
:10611000002300683A463146FFF776FB031EEEDBAC
:106120001846F1E738B584690A4B036005467CB12F
:106130006368013B63605BB9236820469B689847AE
:10614000A368013BA3601BB923682046DB6898471E
:10615000284638BD98760B0010B50446FFF7E2FFDD
:1061600020461C21FEF7CBFB204610BD30B587B082
:10617000044601AD6846FFF7C5FD0FCD04340FC4DA
:106180002B68237007B030BD70B54D69054B0446D0
:106190008C3544F8043B06460FCD0FC42B682370A2
:1061A000304670BD10760B002DE9F0439846036829
:1061B00093B00D460024DB6A0646174698472846EA
:1061C0006B46224621460094FFF7F6FA0546002862
:1061D00063D1009B002B4BD05B69002B48D006A8F5
:1061E000FFF74CFD009B5C696378022B04D1211DF5
:1061F00006A8FFF7BBFF26E00A2B24D1112229466F
:1062000001A800F007FEA368002B38D004F10803B2
:106210000DF1040C183418685968624603C208333B
:10622000A3429446F7D1062301A90CA88DF8143097
:10623000FFF732FD0DF1340CBCE80F0007AC0FC4C2
:10624000DCF80030237006A8FFF738FD80B1336812
:1062500007ADD3F82090124B0C930FCD0DAC0FC4AB
:106260002B6823703A4643460CA93046C84705467A
:106270000098FFF799FA284613B0BDE8F083E36869
:10628000002BC3D14FF6FF70D4F81090FFF774FACB
:106290008145BBD104F11401AAE72546E8E700BF18
:1062A00010760B0038B543691A68002A054610DAE3
:1062B000B3F88620B3F884309A420AD103681B6988
:1062C0009847044628B92B682846DB6A9847204639
:1062D00038BD0120FCE710B54369B3F88620B3F858
:1062E00084309A42044605D06369B3F8842013448D
:1062F000187910BD03681B6998470028F4D14FF046
:10630000FF30F6E7F8B543691746B3F88620B3F8CF
:1063100084309A4205460E4616D06969B1F8843039
:10632000B1F88640E41ABC4228BF3C4604332246FA
:106330001944304600F060FD6A69B2F884302344A5
:10634000A2F884302046F8BD03681B6998470028EE
:10635000E3D14FF0FF34F5E742690023A2F884301F
:106360004269A2F8863070472DE9F0411F46036864
:106370000C46DB6A8AB0054616469847237DD5F859
:106380001480042B0CBF02200A2006220121FFF7F3
:1063900043FAC8F800006B691B68002B08DA2B6809
:1063A0002846DB6A0024984720460AB0BDE8F08101
:1063B0002846FFF7D1FFB7B1002303A9F8B2039332
:1063C000ADF81030FFF7C8F90028E8D16869062356
:1063D0000093006803AB41F20B0240F6FF71FFF738
:1063E000F3F90028DBD11C22002103A800F012FDE4
:1063F000237D042B1DD14FF407733046ADF80C30CC
:10640000FFF7CAF9ADF80E006068FFF7B5F9049020
:106410006B691C22186803A9FFF7E6F90028BED1B2
:1064200004340FCC6D698C350FC523682B700124A3
:10643000BAE740F61C233046ADF80C30FFF7ACF954
:1064400005AEADF80E00231D04F114071868596855
:10645000324603C20833BB421646F7D1D8E70000E4
:1064600030B54269B2F886308BB004462BB1B2F831
:1064700084209A4201D1FFF76FFF61690868002804
:1064800018DBB1F886507F2D14D804310823C5F1EC
:1064900080022944FFF7B0F9002813DD6369B3F8DF
:1064A00086200AB9A3F884206369B3F886201044D3
:1064B000A3F886006369B3F88600B3F88430C01A85
:1064C0000BB030BDFFF7F4FA03680B2BF2D0FFF7E7
:1064D000EFFA03680B2BEDD020230025CDE9023520
:1064E000FFF7E6FA03680193084B0949009302AAF3
:1064F0002B463220FFF718FA63691868FFF76CF92A
:1065000063694FF0FF321A60D4E700BF63760B0077
:106510005C760B0010B5436904461868002801DB5F
:10652000FFF75AF963694FF0FF321A606069112270
:1065300000218C3000F06EFC2046BDE81040FFF7D3
:106540000BBF10B5002304460160C0F884308830CA
:10655000FFF794FB204610BD73B500234FF47A7209
:10656000C0E901320E4A0361026043610446AC2077
:106570000191FEF7C0F9051E05F10C0608D00123B4
:10658000C5E90133074B01992B603046FFF7D9FF6E
:106590002046C4E90565FFF7DFFE02B070BD00BF0D
:1065A00098760B007C760B0010B54FF0FF31044657
:1065B000FFF7D2FF204610BD10B504460068002842
:1065C00001DBFFF709F9204610BD0C30FFF7F4BFDF
:1065D000024B1A68024B1A60704700BFACE20320FE
:1065E000F0E6032070474174704708B5007CFFF760
:1065F0005BF920EAE07008BD08B5007CFFF72CF9D4
:1066000020EAE07008BD08B5007CFFF735F940EAE4
:10661000E07008BD08B5007CFFF726F940EAE0709D
:1066200008BD007CFFF730B937B5457C04462DB175
:10663000207C03B0BDE83040FFF706B9007C019133
:10664000FFF732F900280199F2DC284603B030BD8B
:1066500010B514210446FEF752F9204610BD000083
:1066600010B54FF47A730446084611460022C4E977
:106670000123044B2360012320746374FFF71CF98A
:10668000204610BD00770B0041747047704770477B
:1066900008B50021007CFFF72FF940EAE07008BD43
:1066A00008B50121007CFFF727F940EAE07008BD3A
:1066B00008B5007CFFF718F920EAE07008BD08B5BE
:1066C000007CFFF709F920EAE07008BD13B5044625
:1066D000007C0191FFF708F90028019901DC607C3A
:1066E00020B1207CFFF710F920EAE07002B010BD65
:1066F000007CFFF711B910B514210446FEF7FFF82E
:10670000204610BD10B54FF47A73044608460021A8
:10671000C4E90113044B2360012320746374114600
:10672000FFF7D2F8204610BD30770B0010B51422C9
:106730000446002100F06EFB204610BD10B50F4C42
:1067400088B003A8FFF7F2FF2178BFF35B8F11F049
:1067500001010FD120460191FEF7D3F8019948B10C
:1067600003AA0748FFF7CEFF2046FEF7CFF80548FB
:1067700000F034FB024808B010BD00BFF4E603206F
:10678000F8E603208D660B00002240681146FFF7F3
:1067900027B9002240681146FFF742B9002240683D
:1067A0001146FFF74DB940680022FFF741B9406834
:1067B000002281F00101FFF72BB9002340681A463F
:1067C0001946FFF71DB9002340681A461946FFF71E
:1067D0000FB9002240681146FFF7F2B84068002266
:1067E0000221FFF7F5B8002340681A46FFF7E0B82A
:1067F000024B04225A60024A1A6070470CE70320D9
:1068000060770B00014B1860704700BFB0E20320B7
:1068100008B50B4B43B1FFF791FF03681B6998471D
:10682000002801DDAFF30080064B43B100F09AF978
:1068300003681B699847002801DDAFF3008008BD9D
:10684000000000000000000008B5FFF7E1FFFEF7C0
:1068500003FF014B186008BD28E703200548064ADE
:10686000064908B5121A00F0C7FA054B054A1A6026
:1068700008BD00BF00F4032004F40320B07A0B002D
:1068800000F403201E1C279A07B5002300931A4624
:106890006FF07701FFF772F803B05DF804FB0000BA
:1068A00007B543880A2B08D0502B0BD1094B1B6826
:1068B0004BB103B05DF804EB1847FFF7E5FF03B0F9
:1068C0005DF804FB002300931A466FF07701FFF791
:1068D00055F8F4E718E7032010B512480021FFF738
:1068E000F7F8114B1A68114B9A42114B0CBF012259
:1068F00000221A7001D0FFF7B1FFFEF7A5FE044693
:1069000000F090FA0B4B13B12046AFF3008000214A
:106910000848FFF745F8BDE8104007480021FFF799
:1069200023B800BF05680B0000F403201E1C279A43
:1069300014E7032000000000A1680B00232813B512
:1069400002D9002002B010BDA0F10B03022B1AD80F
:10695000174C2178BFF35B8F11F001010BD120465A
:106960000191FDF7CEFF019928B11248FFF7FAFA1D
:106970002046FDF7CBFF0F4B1878FEF75DFF002890
:10698000DFD10120DEE7012809D800F0ABF80021B3
:10699000007CFEF7D1FE80F00100C0B2D2E70938DA
:1069A0000128EED800F0DEF8007CFEF775FFF2E774
:1069B0001CE7032020E70320232838B504460D46B2
:1069C0000AD8FF2908D0FFF7B9FF28B12946204689
:1069D000BDE83840FEF750BE38BD38B504460D4618
:1069E000FEF752FEFF2810D0062804D84D2323FAC4
:1069F00000F0C30709D42046FFF7A0FF28B12946BD
:106A00002046BDE83840FEF747BE38BD10B5044605
:106A1000FEF73AFE031FDBB2012B08D92046FFF731
:106A20008DFF20B12046BDE81040FEF73DBE00209E
:106A300010BD0D2810B504469CBF0E34A4B22046EC
:106A4000FFF77CFF50B103212046FEF70DFE03281F
:106A500004D12046BDE81040FEF736BE002010BD30
:106A600038B504460D46FFF769FFF0B10421204612
:106A7000FEF7FAFD042805D1A9B22046BDE838404A
:106A8000FEF71ABE02212046FEF7EEFD02280CD1C9
:106A90002046FEF7F9FD012801D0042805D129463A
:106AA0002046BDE83840FEF717BE38BD70470000ED
:106AB00038B50A4B0360012304464361084920208E
:106AC00000F074F8202560600549A560284600F0B4
:106AD0006DF8C4E90305204638BD00BF1800010069
:106AE00094770B0030B50E4D2978BFF35B8F11F012
:106AF000010487B011D12846FDF703FF68B168464D
:106B0000FFF7D6FF6A4621460648FFF75FF828469A
:106B1000FDF7FCFE044800F061F9024807B030BD03
:106B20002CE7032030E70320AD6A0B00704700001C
:106B300038B5044614252A46002100F06BF925805B
:106B40004025074925812846258200F02FF8044971
:106B50006060284600F02AF8E060204638BD00BF9B
:106B600094770B0030B50E4D2978BFF35B8F11F091
:106B7000010487B011D12846FDF7C3FE68B101A812
:106B8000FFF7D6FF01AA21460648FFF769FD284610
:106B9000FDF7BCFE044800F021F9024807B030BD03
:106BA00044E7032048E703202D6B0B00FDF7A5BE4B
:106BB00008B5FEF775FF0000014900F0F9B800BF05
:106BC000B0770B007FB500241023CDE902340368B1
:106BD00015469E6912686B46CDE90044B0479DF8A2
:106BE000043003F00603062B03BF009B2B6001203B
:106BF000204604B070BD0098904214BF01200620CA
:106C00007047000010B5034B0360044600F0CDF858
:106C1000204610BDF0770B0010B50446FFF7F2FFD9
:106C200020460821FDF76BFE204610BD2DE9F041FE
:106C30001F46DDE90834DDF81880984506461546FC
:106C400007D1079900F0B4F818B165710020BDE8CC
:106C5000F0813946304600F0ABF80028F6D0012329
:106C6000C4F800802571A371F0E738B515461C46BD
:106C700000F09EF820B10823E3600623256023710D
:106C800038BD73B505460C4601921E4600F090F8DB
:106C900050B9032E08D82368019A5B69294620461B
:106CA00002B0BDE87040184702B070BD10B5034B8C
:106CB00003600446FFF7A6FF204610BD50780B0086
:106CC00010B50446FFF7F2FF20460C21FDF717FE32
:106CD000204610BDF7B5089F974205460E4614465C
:106CE0000AD0A86802680897156A31462246AC4661
:106CF00003B0BDE8F04060471946019300F058F832
:106D0000019B0028EDD0062003B0F0BD2DE9F14F26
:106D10000D461946DDE90A4BDDE90CA6814617460A
:106D2000984600F045F890B1002D3460377109DBCA
:106D300061198A450CBF06210121B171002001B003
:106D4000BDE8F08F0235F9D10123B371F6E7544560
:106D500006D15946484600F02BF808B17771EDE7A7
:106D6000D9F808000368CDE90CA6CDE90A4BDC6927
:106D70003A4643462946A44601B0BDE8F04F604775
:106D80002DE9F04107460C4615461E46FFF76DFFFC
:106D900048B9B86803689F692A4633462146BC460D
:106DA000BDE8F0416047BDE8F081704700207047C2
:106DB000814208B50ED0406803782A2B0CD0496870
:106DC0000B782A2B08BF0131FDF748FDB0FA80F09F
:106DD000400908BD0120FCE70020FAE70023014636
:106DE0001A46184600F0ECB80A22002100F0DEB87E
:106DF0000A22002100F0DAB80A44914200F1FF3380
:106E000000D1704710B511F8014B03F8014F9142C2
:106E1000F9D110BD02440346934200D1704703F8F4
:106E2000011BF9E738B5104B1D68AB6B0446B3B9CD
:106E30001820FEF71DFE0246A86320B90B4B0C4834
:106E40004221FEF73DFE0B490B4BC0E900130B4BF3
:106E500083600B23838100210120C2E90401AB6B15
:106E600000221C615A6138BDB0E2032089780B0012
:106E7000A0780B000E33CDAB34126DE6ECDE0500CE
:106E800010B50139034632B111F8014F03F8014B37
:106E9000013A002CF7D11A440021934200D110BDD1
:106EA00003F8011BF9E70000012B2DE9F04701D0A1
:106EB000242B06D9FEF7FCFD162303600020BDE855
:106EC000F087DFF8E4C00D462E4615F8014B14F8A4
:106ED0000C7017F00807F7D12D2C32D12C78012730
:106EE000B51C002B5BD0102B09D1302C07D12C788E
:106EF00004F0DF04582C4DD16C781023023507F1D3
:106F0000004808F1FF384FF0000CB8FBF3F9664673
:106F100003FB198AA4F1300EBEF1090F16D874468E
:106F2000A34224DDBCF1000F1EDBB1451CD301D10F
:106F3000A24519DB06FB03464FF0010C15F8014B87
:106F4000E8E72B2C04BF2C78B51CCAE7A4F1410E4E
:106F5000BEF1190F01D8373CE2E7A4F1610EBEF192
:106F6000190F04D8573CDBE74FF0FF3CE6E7BCF1D4
:106F7000000F05DA22230360464642B930469EE7F9
:106F800007B17642002AF9D0BCF1000F00D0691E8B
:106F90001160F3E73024002BB1D10823AFE7302C88
:106FA000A5D00A23ABE700BFFA780B0013460A46C8
:106FB000014602480068FFF777BF00BFB0E2032038
:106FC0002DE9F843DFF8B8800646D8F800001F46E0
:106FD0000D46914600F056F8254B1C6834B9254CF7
:106FE0001C60254B13B11B68C4F8883063681F2BE5
:106FF00007DDD8F8000000F047F84FF0FF30BDE89B
:10700000F8834EB3D4F8880088B91C4B23B9D8F85C
:10701000000000F038F8F0E74FF48470FEF728FD28
:107020000028F4D00023C0E94033C4F88800636826
:1070300040F8239001229A4000EB8301D0F8003100
:107040001343C0F80031022EC1F8807002BFD0F89F
:1070500004311343C0F804316368D8F800005A1CA7
:107060000233626044F8235000F00EF80020C6E7B7
:10707000E8E703205CE7032000000000715A0B00E2
:1070800014E30320704770477047000081480B00ED
:10709000BD480B00E5480B00E9480B00000000006C
:1070A000256900256C6900696E006F757400707742
:1070B0006D00647700617700733962725370484BDA
:1070C0005847624A4B2D50674C466F714273694E68
:1070D0004D74322D384C4F4300626C796E6B2E63C9
:1070E0006C6F756400427574746F6E2054617070BB
:1070F0006564004865792C20426C796E6B20707550
:107100007368206865726521006E6F746966790026
:10711000746D706C00544D504C325475346B644D2A
:107120004C630076770025322E336600626C6E6BFE
:10713000696E660076657200312E312E3000682D42
:107140006265617400343500627566662D696E0093
:107150003130323400646576005061727469636C5A
:1071600065204172676F6E0066772D7479706500D7
:10717000544D504C325475346B644D4C6300627501
:10718000696C64004A756E20323920323032332007
:1071900031393A35383A3030000000005D540B0088
:1071A0005D540B005D540B005D540B005D540B00EF
:1071B0005D540B005D540B005D540B005D540B00DF
:1071C0005D540B005D540B005D540B005D540B00CF
:1071D0005D540B005D540B005D540B005D540B00BF
:1071E0005D540B005D540B005D540B005D540B00AF
:1071F0005D540B005D540B005D540B005D540B009F
:107200005D540B005D540B005D540B005D540B008E
:107210005D540B005D540B005D540B005D540B007E
:107220005D540B005D540B005D540B005D540B006E
:107230005D540B005D540B005D540B005D540B005E
:107240005D540B005D540B005D540B005D540B004E
:107250005D540B005D540B005D540B005D540B003E
:107260005D540B005D540B005D540B005D540B002E
:107270005D540B005D540B005D540B005D540B001E
:107280005D540B005D540B005D540B005D540B000E
:107290005D540B005D540B005D540B005D540B00FE
:1072A0005D540B005D540B005D540B005D540B00EE
:1072B0005D540B005D540B005D540B005D540B00DE
:1072C0005D540B005D540B005D540B005D540B00CE
:1072D0005D540B005D540B005D540B005D540B00BE
:1072E0005D540B005D540B005D540B005D540B00AE
:1072F0005D540B005D540B005D540B005D540B009E
:107300005D540B005D540B005D540B005D540B008D
:107310005D540B005D540B005D540B005D540B007D
:107320005D540B005D540B005D540B005D540B006D
:107330005D540B005D540B005D540B005D540B005D
:107340005D540B005D540B005D540B005D540B004D
:107350005D540B005D540B005D540B005D540B003D
:107360005D540B005D540B005D540B005D540B002D
:107370005D540B005D540B005D540B005D540B001D
:107380005D540B005D540B005D540B005D540B000D
:107390005D540B005D540B005D540B0049520B0013
:1073A0005F540B005F540B005F540B005F540B00E5
:1073B0005F540B005F540B005F540B005F540B00D5
:1073C0005F540B005F540B005F540B005F540B00C5
:1073D0005F540B005F540B005F540B005F540B00B5
:1073E0005F540B005F540B005F540B005F540B00A5
:1073F0005F540B005F540B005F540B005F540B0095
:107400005F540B005F540B005F540B005F540B0084
:107410005F540B005F540B005F540B005F540B0074
:107420005F540B005F540B005F540B005F540B0064
:107430005F540B005F540B005F540B005F540B0054
:107440005F540B005F540B005F540B005F540B0044
:107450005F540B005F540B005F540B005F540B0034
:107460005F540B005F540B005F540B005F540B0024
:107470005F540B005F540B005F540B005F540B0014
:107480005F540B005F540B005F540B005F540B0004
:107490005F540B005F540B005F540B005F540B00F4
:1074A0005F540B005F540B005F540B005F540B00E4
:1074B0005F540B005F540B005F540B005F540B00D4
:1074C0005F540B005F540B005F540B005F540B00C4
:1074D0005F540B005F540B005F540B005F540B00B4
:1074E0005F540B005F540B005F540B005F540B00A4
:1074F0005F540B005F540B005F540B005F540B0094
:107500005F540B005F540B005F540B005F540B0083
:107510005F540B005F540B005F540B005F540B0073
:107520005F540B005F540B005F540B005F540B0063
:107530005F540B005F540B005F540B005F540B0053
:107540005F540B005F540B005F540B005F540B0043
:107550005F540B005F540B005F540B005F540B0033
:107560005F540B005F540B005F540B005F540B0023
:107570005F540B005F540B005F540B005F540B0013
:107580005F540B005F540B005F540B005F540B0003
:107590005F540B005F540B005F540B0000000000B1
:1075A000000000000000000000000000575B0B001E
:1075B0004D5B0B00435B0B00395B0B002D5B0B003D
:1075C000215B0B00755D0B007D5D0B00155B0B00F7
:1075D0000D5B0B00035B0B00F95A0B00AD5D0B005C
:1075E0000000000000000000755B0B00BF5B0B009B
:1075F000975B0B00775B0B009F5B0B00A75B0B009F
:10760000AF5B0B00B75B0B00000000000000000048
:10761000195C0B00095C0B000B5C0B0061707000C7
:107620000000000000000000355D0B003F5D0B0016
:10763000495D0B00535D0B005D5D0B00695D0B0048
:10764000755D0B007D5D0B00855D0B00915D0B0092
:10765000995D0B00A35D0B00AD5D0B00776972694E
:107660006E670072656376206572726F72203D20CE
:1076700025640000000000000000000075600B00A1
:1076800099600B00CB650B00A7600B0079600B00C5
:10769000000000000000000025610B0059610B0094
:1076A000F15F0B000B600B0061640B0035600B0099
:1076B000D7620B0069600B0069630B00A9610B00C6
:1076C00005630B0015650B00A5620B006B600B00DA
:1076D0001D600B00AD600B0089610B0025592D2545
:1076E0006D2D25645425483A254D3A2553257A00B9
:1076F00061736374696D65000000000000000000A4
:10770000E5650B0051660B0029660B00995E0B00C6
:10771000F9650B0015660B0007660B0023660B006E
:10772000E7650B00EB650B000000000000000000A7
:107730008F660B00F7660B00CD660B00995E0B00A1
:10774000BF660B0091660B00A1660B00F1660B0093
:10775000B1660B0089660B0000000000000000000D
:10776000E7670B00DD670B00D3670B0089670B0031
:10777000C7670B00BB670B00755D0B007D5D0B00E1
:10778000AF670B00A7670B009D670B0093670B00AB
:10779000AD5D0B0000537431395F53705F6D616BE9
:1077A000655F7368617265645F7461670000000003
:1077B000F0770B0095770B0050780B00C4770B0027
:1077C00074780B004E31305F5F6378786162697660
:1077D0003131375F5F636C6173735F747970655FBC
:1077E000696E666F4500000000000000B8770B006E
:1077F000056C0B00196C0B00AD6D0B00AD6D0B0033
:10780000836C0B00C56B0B006B6C0B002D6C0B00BD
:10781000F76B0B0050780B0020780B00B8770B004B
:107820004E31305F5F637878616269763132305F04
:107830005F73695F636C6173735F747970655F69AF
:107840006E666F45000000000000000014780B0019
:10785000AD6C0B00C16C0B00AD6D0B00AD6D0B0082
:10786000836C0B00C56B0B00816D0B000D6D0B0065
:10787000D56C0B00F0770B007C780B0053743974D7
:107880007970655F696E666F005245454E54206D94
:10789000616C6C6F63207375636365656465640018
:1078A0002F746D702F6A656E6B696E732D4743433D
:1078B0002D31302D706970656C696E652D34385FBF
:1078C00032303230313132345F3136303631383067
:1078D0003633392F7372632F6E65776C69622F6E42
:1078E00065776C69622F6C6962632F7374646C696D
:1078F000622F72616E642E63000020202020202001
:10790000202020282828282820202020202020204F
:10791000202020202020202020208810101010104F
:10792000101010101010101010100404040404049F
:107930000404040410101010101010414141414182
:1079400041010101010101010101010101010101E7
:107950000101010101101010101010424242424278
:1079600042020202020202020202020202020202B7
:10797000020202020210101010200000000000009D
:1079800000000000000000000000000000000000F7
:1079900000000000000000000000000000000000E7
:1079A00000000000000000000000000000000000D7
:1079B00000000000000000000000000000000000C7
:1079C00000000000000000000000000000000000B7
:1079D00000000000000000000000000000000000A7
:1079E0000000000000000000000000000000000097
:1079F0000000000000000000000000000D540B001B
:107A0000E95A0B00615B0B00255D0B00855E0B00E6
:107A1000595F0B00CD5F0B00D1650B00F1670B00C8
:107A2000040000001400000003000000474E550051
:107A300036145A28B6D0B1EC17CB61C853569A7792
:047A4000B2F3F63B6C
:107A4400F0760B00B4E20320000000000000000008
:107A54000000000000000000000000000000000022
:107A64000000000000000000000000000000000012
:107A74000000000000000000000000000000000002
:107A840000000000000000000000000000000000F2
:107A940000000000000000000000000000000000E2
:0C7AA4000000000000000000ECE70320E0
:047AB00000000000D2
:107ABA0000000102030405060708090A0B0C0D0E53
:107ACA000F101112131415161718191A1B1C1D1E44
:047ADA001F20280041
:047ADE007856341290
:04000003B0004020E9
:00000001FF
